{
  "contractName": "TestyBoi2",
  "abi": [
    {
      "inputs": [],
      "stateMutability": "nonpayable",
      "type": "constructor"
    },
    {
      "inputs": [],
      "name": "totalSupply",
      "outputs": [
        {
          "internalType": "uint256",
          "name": "",
          "type": "uint256"
        }
      ],
      "stateMutability": "view",
      "type": "function",
      "constant": true
    }
  ],
  "bytecode": "0x608060405234801561001057600080fd5b50620f424060008190555060b3806100296000396000f3fe6080604052348015600f57600080fd5b506004361060285760003560e01c806318160ddd14602d575b600080fd5b60336047565b604051603e91906064565b60405180910390f35b60005481565b6000819050919050565b605e81604d565b82525050565b6000602082019050607760008301846057565b9291505056fea26469706673582212206cdbb89bb839c14f725fdd9f1b478dd80d146ed66a2af1e40d29cf523cef55db64736f6c634300080a0033",
  "immutableReferences": {},
  "source": "\r\npragma solidity ^0.8.9;\r\n\r\ncontract TestyBoi2 {\r\n    uint256 public totalSupply;    \r\n\r\n    constructor() {\r\n     totalSupply = 1000000;\r\n    }\r\n    \r\n\r\n    \r\n\r\n}\r\n\r\n",
  "sourcePath": "C:\\Users\\baber\\Desktop\\gameBridge\\testToken\\contracts\\TestyBoi2.sol",
  "compiler": {
    "name": "solc",
    "version": "0.8.10+commit.fc410830.Emscripten.clang"
  },
  "schemaVersion": "3.4.3",
  "updatedAt": "2021-11-22T13:37:16.716Z",
  "networkType": "ethereum",
  "devdoc": {
    "kind": "dev",
    "methods": {},
    "version": 1
  },
  "userdoc": {
    "kind": "user",
    "methods": {},
    "version": 1
  }
}